{
  "_format": "hh-sol-artifact-1",
  "contractName": "IPFSStorage",
  "sourceName": "contracts/ipfs.sol",
  "abi": [
    {
      "anonymous": false,
      "inputs": [
        {
          "indexed": true,
          "internalType": "address",
          "name": "user",
          "type": "address"
        },
        {
          "indexed": false,
          "internalType": "string",
          "name": "cid",
          "type": "string"
        }
      ],
      "name": "CIDStored",
      "type": "event"
    },
    {
      "inputs": [],
      "name": "getUserCIDs",
      "outputs": [
        {
          "internalType": "string[]",
          "name": "",
          "type": "string[]"
        }
      ],
      "stateMutability": "view",
      "type": "function"
    },
    {
      "inputs": [
        {
          "internalType": "string",
          "name": "cid",
          "type": "string"
        }
      ],
      "name": "storeCID",
      "outputs": [],
      "stateMutability": "nonpayable",
      "type": "function"
    }
  ],
  "bytecode": "0x608060405234801561001057600080fd5b506106be806100206000396000f3fe608060405234801561001057600080fd5b50600436106100365760003560e01c8063b044dbd41461003b578063ccfdd32b14610059575b600080fd5b610043610075565b604051610050919061049a565b60405180910390f35b610073600480360381019061006e919061035e565b61018a565b005b60606000803373ffffffffffffffffffffffffffffffffffffffff1673ffffffffffffffffffffffffffffffffffffffff168152602001908152602001600020805480602002602001604051908101604052809291908181526020016000905b828210156101815783829060005260206000200180546100f4906105e7565b80601f0160208091040260200160405190810160405280929190818152602001828054610120906105e7565b801561016d5780601f106101425761010080835404028352916020019161016d565b820191906000526020600020905b81548152906001019060200180831161015057829003601f168201915b5050505050815260200190600101906100d5565b50505050905090565b6000803373ffffffffffffffffffffffffffffffffffffffff1673ffffffffffffffffffffffffffffffffffffffff16815260200190815260200160002081908060018154018082558091505060019003906000526020600020016000909190919091509080519060200190610201929190610253565b503373ffffffffffffffffffffffffffffffffffffffff167fd8a0edc6ade10e42d7ab691902b8c1a635fabe45ace3609fc4fbfad7e424e4278260405161024891906104bc565b60405180910390a250565b82805461025f906105e7565b90600052602060002090601f01602090048101928261028157600085556102c8565b82601f1061029a57805160ff19168380011785556102c8565b828001600101855582156102c8579182015b828111156102c75782518255916020019190600101906102ac565b5b5090506102d591906102d9565b5090565b5b808211156102f25760008160009055506001016102da565b5090565b60006103096103048461050f565b6104de565b90508281526020810184848401111561032157600080fd5b61032c8482856105a5565b509392505050565b600082601f83011261034557600080fd5b81356103558482602086016102f6565b91505092915050565b60006020828403121561037057600080fd5b600082013567ffffffffffffffff81111561038a57600080fd5b61039684828501610334565b91505092915050565b60006103ab8383610428565b905092915050565b60006103be8261054f565b6103c88185610572565b9350836020820285016103da8561053f565b8060005b8581101561041657848403895281516103f7858261039f565b945061040283610565565b925060208a019950506001810190506103de565b50829750879550505050505092915050565b60006104338261055a565b61043d8185610583565b935061044d8185602086016105b4565b61045681610677565b840191505092915050565b600061046c8261055a565b6104768185610594565b93506104868185602086016105b4565b61048f81610677565b840191505092915050565b600060208201905081810360008301526104b481846103b3565b905092915050565b600060208201905081810360008301526104d68184610461565b905092915050565b6000604051905081810181811067ffffffffffffffff8211171561050557610504610648565b5b8060405250919050565b600067ffffffffffffffff82111561052a57610529610648565b5b601f19601f8301169050602081019050919050565b6000819050602082019050919050565b600081519050919050565b600081519050919050565b6000602082019050919050565b600082825260208201905092915050565b600082825260208201905092915050565b600082825260208201905092915050565b82818337600083830152505050565b60005b838110156105d25780820151818401526020810190506105b7565b838111156105e1576000848401525b50505050565b600060028204905060018216806105ff57607f821691505b6020821081141561061357610612610619565b5b50919050565b7f4e487b7100000000000000000000000000000000000000000000000000000000600052602260045260246000fd5b7f4e487b7100000000000000000000000000000000000000000000000000000000600052604160045260246000fd5b6000601f19601f830116905091905056fea26469706673582212204ab1e4bba0cb6eddb6ee7f3b95c05e0186e7b6bd2cbe73cbf752002cd1b7effc64736f6c63430008000033",
  "linkReferences": {},
  "deployedLinkReferences": {}
}